:100000000C945C000C9479000C9479000C947900A9
:100010000C9479000C9479000C9479000C9479007C
:100020000C9479000C9479000C9479000C9479006C
:100030000C9479000C9479000C9479000C9479005C
:100040000C945C050C9479000C9479000C94790064
:100050000C9479000C9479000C9479000C9479003C
:100060000C9479000C947900000000080002010053
:100070000003040700000000000000000000000072
:10008000250028002B0000000000240027002A0083
:10009000040404040404040402020202020203032E
:1000A0000303030301020408102040800102040836
:1000B000102001020408102011241FBECFEFD8E049
:1000C000DEBFCDBF11E0A0E0B1E0EEE1F0E102C0A3
:1000D00005900D92A831B107D9F721E0A8E1B1E070
:1000E00001C01D92A833B207E1F70E94A4050C9449
:1000F0000D080C94000090E080E008950895CF93DF
:10010000DF9300D000D0CDB7DEB73FB7F894809131
:10011000180190911901A0911A01B0911B0126B507
:10012000A89B05C02F3F19F00196A11DB11D3FBF2F
:10013000BA2FA92F982F8827820F911DA11DB11DBD
:100140009C01AD0162E0220F331F441F551F6A95C9
:10015000D1F7CA01B9010F900F900F900F90DF9166
:10016000CF910895CF93DF9390E0FC01EC55FF4FC2
:10017000249180579F4FFC0184918823D1F090E017
:10018000880F991FFC01EA57FF4FA591B491FC011C
:10019000E458FF4FC591D49161110EC09FB7F894F8
:1001A0008C91E22FE0958E238C932881E223E883C3
:1001B0009FBFDF91CF9108958FB7F894EC91E22B18
:1001C000EC938FBFF6CF90E0FC01E859FF4F2491EC
:1001D000FC01EC55FF4F3491FC01E057FF4FE491D7
:1001E000EE23D9F0222349F0243031F1B8F4223043
:1001F00059F12330D9F0213019F1F0E0EE0FFF1F53
:10020000E458FF4FA591B4918FB7F894EC91611128
:1002100024C030953E233C938FBF08952730B9F01A
:10022000283059F78091B0008F7D14C080918000F4
:100230008F7780938000E1CF809180008F7DF9CF10
:1002400084B58F7784BDD9CF84B58F7DFBCF809166
:10025000B0008F778093B000D0CF3E2BDCCFCF9310
:10026000DF93EC0160E08E810E94E30061E08E810B
:100270000E94E30060E08E810E94E3008BE891E041
:100280000197F1F7DF91CF910895CF92DF92EF922E
:10029000FF920F931F93CF93DF93EC016C0187E0E4
:1002A000C80ED11C10E000E0E62EF12CB701002EA4
:1002B00002C0759567950A94E2F76170F601819125
:1002C0006F010E94E3000F5F1F4F0430110571F7AB
:1002D000CE01DF91CF911F910F91FF90EF90DF90B2
:1002E000CF900C942F01CF92DF92EF92FF920F9359
:1002F0001F93CF93DF93EC01062F642F8C810E9414
:10030000E3008D818F3F19F060E00E94E3008F854C
:1003100084FF26C06E0187E0C80ED11CF12CE12CB1
:1003200010E0B8010E2C02C0759567950A94E2F7AB
:100330006170F60181916F010E94E300FFEFEF1AF7
:10034000FF0A88E0E816F10461F7CE01DF91CF9152
:100350001F910F91FF90EF90DF90CF900C942F01A1
:10036000602F62956F70CE010E944501602FCE0113
:10037000DF91CF911F910F91FF90EF90DF90CF9081
:100380000C94450141E00E94730181E090E00895E2
:1003900040E00C947301CF92DF92EF92FF920F93A3
:1003A0001F93CF93DF937C016A0110E000E00C15EE
:1003B0001D0581F0EB01D701ED91FC910190F081D9
:1003C000E02D6991C7010995892B21F00F5F1F4F1F
:1003D000BE01EDCFC801DF91CF911F910F91FF902A
:1003E000EF90DF90CF900895EF92FF920F931F93BD
:1003F000CF93DF93EC01623019F48F8588608F878B
:100400006B8B1C8A80E48D8B80E18E8B80E58F8BDB
:1004100061E08C810E94B2008D818F3F19F061E014
:100420000E94B20061E08E810E94B2007E0187E0EE
:10043000E80EF11C10E000E08F8584FD0EC084E022
:1004400090E0081719075CF461E0F70181917F01E2
:100450000E94B2000F5F1F4FEFCF88E0F1CF8BE318
:100460009DE00197F1F760E08C810E94E30060E07D
:100470008E810E94E3008D818F3F19F060E00E9421
:10048000E3006F8564FD3BC063E0CE010E9445013F
:100490000BE416E4C8010197F1F763E0CE010E9476
:1004A0004501C8010197F1F763E0CE010E944501C3
:1004B00083E592E00197F1F762E0CE010E944501E9
:1004C0006F856062CE010E94C80184E0888B6CE079
:1004D000CE010E94C80161E0CE010E94C8018BE3F9
:1004E0009FE10197F1F782E0898B66E0CE01DF9111
:1004F000CF911F910F91FF90EF900C94C801606213
:10050000CE010E94C8018BE496E40197F1F76F8554
:100510006062CE010E94C80183E592E00197F1F785
:100520006F856062CE010E94C801CACFFB01EF2B2C
:1005300051F0DB010D900020E9F71197AD01461B4A
:10054000570B0C94CB010895CF93DF93CDB7DEB753
:10055000C259D1090FB6F894DEBF0FBECDBF2796A2
:100560001FAE1EAE279784E091E025969FAF8EAF19
:10057000259787E028968FAF28978FEF29968FAF22
:10058000299788E02A968FAF2A978EE02B968FAF17
:100590002B978FE02C968FAF2C9780E12D968FAF05
:1005A0002D9781E12E968FAF2E972F961FAE2F9706
:1005B00060961FAE609761961FAE619762961FAE00
:1005C000629763961FAE639761E0CE018D5B9F4F8C
:1005D0000E94F40162E0CE018D5B9F4F0E94F40106
:1005E00061E084E00E94B20061E08AE00E94B20013
:1005F00061E08DE00E94B20061E08BE00E94B200F9
:1006000060E08CE00E94B20061E084E00E94E300C0
:1006100061E08AE00E94E3001CBC8CB580648CBD64
:100620008CB580618CBD8CB588608CBD8CB58160CB
:100630008CBD81E291E00E94020611E04AE0242E86
:10064000312C412C512C60E08AE00E94E3001EBD59
:100650000DB407FEFDCF8EB520E22EBD0DB407FE12
:10066000FDCFEEB4F12CFE2CEE24EE248FE0F82228
:100670001EBC0DB407FEFDCF8EB53701682A612F71
:100680008AE00E94E3000E947F004B015C012AEF98
:10069000C22ED12CE12CF12C0E947F00C157DF4FDC
:1006A000688379838A839B83CF58D040DC01CB0158
:1006B00088199909AA09BB09883E9340A105B1058B
:1006C00058F391E0C91AD108E108F108A8EE8A0EA2
:1006D000A3E09A1EA11CB11CC114D104E104F104D1
:1006E000D9F6C301B0E0A0E0C957DF4F88839983F2
:1006F000AA83BB83C758D040B301CD010E94E40652
:1007000022E43BE847E65DE3A4966FAFA497A59685
:100710007FAFA597A6968FAFA697A7969FAFA797EF
:10072000A7966CAD7DAD8EAD9FADA7970E949B0740
:100730002DEC35ED48EA52E4A8966FAFA897A9963C
:100740007FAFA997AA968FAFAA97AB969FAFAB97AB
:10075000AB966CAD7DAD8EAD9FADAB970E94430661
:10076000462F572FBC016F964CAF5DAF6EAF7FAF7A
:100770006F97DC01CA01C158DF4F88839983AA8330
:10078000BB83CF57D040612FCE018D5B9F4F0E941E
:10079000C8018BE39FE10197F1F76F962CAD3DAD5A
:1007A0004EAD5FAD6F97CA01B9010E9408086CE0B9
:1007B00071E081113BC06F968CAD9DADAEADBFAD0C
:1007C0006F97BF77CD57DF4F88839983AA83BB8309
:1007D000C358D0402FEF3FEF4FE75FE7BC01CD019B
:1007E0000E940808811112C02FEF3FEF4FE75FE72B
:1007F000CD57DF4F688179818A819B81C358D04072
:100800000E94B00660E171E0181684F02FEF3FEF10
:100810004FE75FE46F966CAD7DAD8EAD9FAD6F978A
:100820000E949607181644F464E171E0CE018D5BD6
:100830009F4F0E94960207CF2FEF3FEF4FE75FECED
:100840006F966CAD7DAD8EAD9FAD6F970E94B0067B
:1008500087FDEACF20E030E0A9016F966CAD7DAD59
:100860008EAD9FAD6F970E94B00687FF16C0412FD7
:100870006DE2CE018D5B9F4F0E9473016F968CAD30
:100880009DADAEADBFAD6F97B058C158DF4F8883F7
:100890009983AA83BB83CF57D0402AE037ED43EA40
:1008A0005BE3C158DF4F688179818A819B81CF5793
:1008B000D0400E944406D62EE72EF82E092FAC9683
:1008C0006FAFAC97AD967FAFAD97AE968FAFAE974B
:1008D000AF969FAFAF97AF966CAD7DAD8EAD9FAD30
:1008E000AF970E94B506762E872E982EA92E0E94CD
:1008F000E4069B01AC01E096DFAEE097E196EFAE37
:10090000E197E296FFAEE297E3960FAFE397E396A7
:100910006CAD7DAD8EAD9FADE3970E944306B62EC4
:10092000C72ED82E092F23961FAE239792E2E92EC9
:10093000F12CEC0EFD1E90E2E90EF11C672D782DD6
:10094000892D9A2DA20191010E94E005872D982DF5
:10095000A92DBA2D722E832E942EA52E605DF7013F
:1009600062937F010A97A105B10540F7BF01CE014F
:100970008D5B9F4F0E949602412F6EE2CE018D5BF0
:100980009F4F0E94730183E0682E6A94662009F4E9
:100990005ACE20E030E040E251E4E496BFAEE49766
:1009A000E596CFAEE597E696DFAEE697E7960FAF12
:1009B000E797E7966CAD7DAD8EAD9FADE7970E9452
:1009C0009B07762EA72EB82E092FE8966FAFE897D3
:1009D000E9967FAFE997EA968FAFEA97EB969FAFDC
:1009E000EB97EB966CAD7DAD8EAD9FADEB970E9416
:1009F000B5066B01CB01B0E0A0E0A3968CAF9DAF34
:100A0000AEAFBFAFA39719A24E0191E2890E911C20
:100A1000A3966CAD7DAD8EAD9FADA397A201910164
:100A20000E94E005A3968CAD9DADAEADBFADA39782
:100A3000A0962FAFA097A1963FAFA197A2964FAFD8
:100A4000A297A3965FAFA397605DF40162934F01F5
:100A50000A97A105B105E0F6BF01CE018D5B9F4F5E
:100A60000E949602C601B0E0A0E0C557DF4F888320
:100A70009983AA83BB83CB58D040B601CD010E9495
:100A8000E4069B01AC01EC967FAEEC97ED96AFAE21
:100A9000ED97EE96BFAEEE97EF960FAFEF97EF960E
:100AA0006CAD7DAD8EAD9FADEF970E944306B62E27
:100AB000C72ED82E092F69CF1F921FB61F9211245F
:100AC0002F933F938F939F93AF93BF9380911D017B
:100AD00090911E01A0911F01B091200130911C0145
:100AE00023E0230F2D3750F50196A11DB11D209352
:100AF0001C0180931D0190931E01A0931F01B093D0
:100B000020018091180190911901A0911A01B091D2
:100B10001B010196A11DB11D80931801909319012D
:100B2000A0931A01B0931B01BF91AF919F918F9138
:100B30003F912F911F901FBE1F90189526E8230FFD
:100B40000296A11DB11DD3CF789484B5826084BD77
:100B500084B5816084BD85B5826085BD85B58160C1
:100B600085BDEEE6F0E0808181608083E1E8F0E021
:100B70001082808182608083808181608083E0E850
:100B8000F0E0808181608083E1EBF0E0808184602F
:100B90008083E0EBF0E0808181608083EAE7F0E031
:100BA0008081846080838081826080838081816095
:100BB00080838081806880831092C1000E94A4029B
:100BC000A1E21A2EAA1BBB1BFD010DC0AA1FBB1F51
:100BD000EE1FFF1FA217B307E407F50720F0A21BC3
:100BE000B30BE40BF50B661F771F881F991F1A9430
:100BF00069F760957095809590959B01AC01BD015A
:100C0000CF010895DC012D923D924D925D926D923F
:100C10007D928D929D92AD92BD92CD92DD92ED929C
:100C2000FD920D931D93CD93DD93FF91EF918DB7C1
:100C30008D938EB78D938FB78D93ED93FD9388270A
:100C400099270994DC01CB0181309105811D2D90FC
:100C50003D904D905D906D907D908D909D90AD906C
:100C6000BD90CD90DD90ED90FD900D911D91CD91B9
:100C7000DD91ED91FD910D90F894FEBF0FBEEDBF9B
:100C8000ED91FD9109945058BB27AA270E945B065D
:100C90000C945C070E944E0738F00E94550720F024
:100CA00039F49F3F19F426F40C944B070EF4E095A9
:100CB000E7FB0C944507E92F0E946D0758F3BA171C
:100CC000620773078407950720F079F4A6F50C9462
:100CD0008F070EF4E0950B2EBA2FA02D0B01B90152
:100CE00090010C01CA01A0011124FF27591B99F0A2
:100CF000593F50F4503E68F11A16F040A22F232FAE
:100D0000342F4427585FF3CF469537952795A795FD
:100D1000F0405395C9F77EF41F16BA0B620B730BA4
:100D2000840BBAF09150A1F0FF0FBB1F661F771F15
:100D3000881FC2F70EC0BA0F621F731F841F48F4CA
:100D4000879577956795B795F7959E3F08F0B0CF53
:100D50009395880F08F09927EE0F9795879508953A
:100D60000E94210708F481E008950E94750788F029
:100D70009F5798F0B92F9927B751B0F0E1F0660F5F
:100D8000771F881F991F1AF0BA95C9F714C0B130A0
:100D900091F00E948F07B1E008950C948F07672FA0
:100DA000782F8827B85F39F0B93FCCF386957795CF
:100DB0006795B395D9F73EF49095809570956195B8
:100DC0007F4F8F4F9F4F0895E89409C097FB3EF4E3
:100DD00090958095709561957F4F8F4F9F4F992388
:100DE000A9F0F92F96E9BB279395F6958795779506
:100DF0006795B795F111F8CFFAF4BB0F11F460FFC6
:100E00001BC06F5F7F4F8F4F9F4F16C0882311F01D
:100E100096E911C0772321F09EE8872F762F05C031
:100E2000662371F096E8862F70E060E02AF09A95CC
:100E3000660F771F881FDAF7880F9695879597F9C1
:100E40000895990F0008550FAA0BE0E8FEEF16165B
:100E50001706E807F907C0F012161306E407F507AE
:100E600098F0621B730B840B950B39F40A2661F022
:100E7000232B242B252B21F408950A2609F4A140C5
:100E8000A6958FEF811D811D089597F99F6780E8D2
:100E900070E060E008959FEF80EC089500240A94CC
:100EA0001616170618060906089500240A94121645
:100EB0001306140605060895092E0394000C11F478
:100EC000882352F0BB0F40F4BF2B11F460FF04C025
:100ED0006F5F7F4F8F4F9F4F089557FD9058440F7E
:100EE000551F59F05F3F71F04795880F97FB991F89
:100EF00061F09F3F79F08795089512161306140646
:100F0000551FF2CF4695F1DF08C0161617061806D2
:100F1000991FF1CF86957105610508940895E894AD
:100F2000BB2766277727CB0197F908950E942107F1
:100F300008F48FEF08950E94AE070C945C070E949E
:100F40004E0738F00E94550720F0952311F00C94BD
:100F500045070C944B0711240C9490070E946D07D1
:100F600070F3959FC1F3950F50E0551F629FF001FC
:100F7000729FBB27F00DB11D639FAA27F00DB11D15
:100F8000AA1F649F6627B00DA11D661F829F22279E
:100F9000B00DA11D621F739FB00DA11D621F839F25
:100FA000A00D611D221F749F3327A00D611D231FFB
:100FB000849F600D211D822F762F6A2F11249F5749
:100FC00050409AF0F1F088234AF0EE0FFF1FBB1F4C
:100FD000661F771F881F91505040A9F79E3F51050B
:100FE00080F00C9445070C9490075F3FE4F3983E23
:100FF000D4F3869577956795B795F795E7959F5FB5
:10100000C1F7FE2B880F911D9695879597F9089546
:0E1010000E942107880B990B0895F894FFCFDA
:10101E0000000000C201CB017B007E006E616E00FD
:08102E00696E66006F76660032
:107E0000112484B714BE81FFF0D085E080938100F7
:107E100082E08093C00088E18093C10086E0809377
:107E2000C20080E18093C4008EE0C9D0259A86E02C
:107E300020E33CEF91E0309385002093840096BBD3
:107E4000B09BFECF1D9AA8958150A9F7CC24DD24C4
:107E500088248394B5E0AB2EA1E19A2EF3E0BF2EE7
:107E6000A2D0813461F49FD0082FAFD0023811F036
:107E7000013811F484E001C083E08DD089C08234E0
:107E800011F484E103C0853419F485E0A6D080C0E4
:107E9000853579F488D0E82EFF2485D0082F10E0AE
:107EA000102F00270E291F29000F111F8ED06801E7
:107EB0006FC0863521F484E090D080E0DECF843638
:107EC00009F040C070D06FD0082F6DD080E0C81688
:107ED00080E7D80618F4F601B7BEE895C0E0D1E017
:107EE00062D089930C17E1F7F0E0CF16F0E7DF06D8
:107EF00018F0F601B7BEE89568D007B600FCFDCFD4
:107F0000A601A0E0B1E02C9130E011968C91119780
:107F100090E0982F8827822B932B1296FA010C0160
:107F200087BEE89511244E5F5F4FF1E0A038BF0790
:107F300051F7F601A7BEE89507B600FCFDCF97BE46
:107F4000E89526C08437B1F42ED02DD0F82E2BD052
:107F50003CD0F601EF2C8F010F5F1F4F84911BD097
:107F6000EA94F801C1F70894C11CD11CFA94CF0C13
:107F7000D11C0EC0853739F428D08EE10CD085E9AC
:107F80000AD08FE07ACF813511F488E018D01DD067
:107F900080E101D065CF982F8091C00085FFFCCF94
:107FA0009093C60008958091C00087FFFCCF809118
:107FB000C00084FD01C0A8958091C6000895E0E648
:107FC000F0E098E1908380830895EDDF803219F02E
:107FD00088E0F5DFFFCF84E1DECF1F93182FE3DFCA
:107FE0001150E9F7F2DF1F91089580E0E8DFEE27F6
:047FF000FF270994CA
:027FFE00040479
:0400000300007E007B
:00000001FF
