:100000000C945D000C947A000C947A000C947A00A5
:100010000C947A000C947A000C947A000C940D07DE
:100020000C947A000C947A000C947A000C947A0068
:100030000C947A000C947A000C947A000C947A0058
:100040000C94C5060C947A000C947A000C947A00F7
:100050000C947A000C947A000C947A000C947A0038
:100060000C947A000C947A00000000080002010051
:100070000003040700000000000000000000000072
:10008000240027002A0001020408102040800102F9
:1000900004081020010204081020000000002500C0
:1000A00028002B00040404040404040402020202D5
:1000B0000202030303030303020011241FBECFEF58
:1000C000D8E0DEBFCDBF11E0A0E0B1E0E4EFF3E1A6
:1000D00002C005900D92AA32B107D9F721E0AAE239
:1000E000B1E001C01D92A238B207E1F70E948F076C
:1000F0000C94F8090C94000090E080E008950895B5
:10010000CF93DF9300D000D0CDB7DEB73FB7F894E0
:1001100080912A0190912B01A0912C01B0912D0189
:1001200026B5A89B05C02F3F19F00196A11DB11D52
:100130003FBFBA2FA92F982F8827820F911DA11D8D
:10014000B11D9C01AD0162E0220F331F441F551FFA
:100150006A95D1F7CA01B9010F900F900F900F90D7
:10016000DF91CF910895CF93DF9390E0FC01EA57A0
:10017000FF4F24918C559F4FFC0184918823D1F02F
:1001800090E0880F991FFC01E458FF4FA591B491AE
:10019000FC01E656FF4FC591D49161110EC09FB787
:1001A000F8948C91E22FE0958E238C932881E223A2
:1001B000E8839FBFDF91CF9108958FB7F894EC91BA
:1001C000E22BEC938FBFF6CF90E0FC01E859FF4F94
:1001D0002491FC01EA57FF4F3491FC01EC55FF4F8D
:1001E000E491EE23D9F0222349F0243031F1B8F420
:1001F000223059F12330D9F0213019F1F0E0EE0F1F
:10020000FF1FE656FF4FA591B4918FB7F894EC917C
:10021000611124C030953E233C938FBF0895273051
:10022000B9F0283059F78091B0008F7D14C08091CB
:1002300080008F7780938000E1CF809180008F7D58
:10024000F9CF84B58F7784BDD9CF84B58F7DFBCFAF
:100250008091B0008F778093B000D0CF3E2BDCCF61
:10026000CF93DF93EC0160E08E810E94E40061E0B7
:100270008E810E94E40060E08E810E94E4008BE8A1
:1002800091E00197F1F7DF91CF910895CF92DF923E
:10029000EF92FF920F931F93CF93DF93EC016C01CA
:1002A00087E0C80ED11C10E000E0E62EF12CB7016B
:1002B000002E02C0759567950A94E2F76170F60109
:1002C00081916F010E94E4000F5F1F4F0430110500
:1002D00071F7CE01DF91CF911F910F91FF90EF90B9
:1002E000DF90CF900C943001CF92DF92EF92FF928B
:1002F0000F931F93CF93DF93EC01062F642F8C8114
:100300000E94E4008D818F3F19F060E00E94E400BC
:100310008F8584FF26C06E0187E0C80ED11CF12CAA
:10032000E12C10E0B8010E2C02C0759567950A9477
:10033000E2F76170F60181916F010E94E400FFEF26
:10034000EF1AFF0A88E0E816F10461F7CE01DF91A9
:10035000CF911F910F91FF90EF90DF90CF900C9471
:100360003001602F62956F70CE010E944601602FB0
:10037000CE01DF91CF911F910F91FF90EF90DF9011
:10038000CF900C94460141E00E94740181E090E01E
:10039000089540E00C947401FC018389481710F023
:1003A0004FEF480FDF01A40FB11D54968C91680FD9
:1003B0006068CF010C94C901CF92DF92EF92FF9257
:1003C0000F931F93CF93DF937C016A0110E000E04D
:1003D0000C151D0581F0EB01D701ED91FC91019009
:1003E000F081E02D6991C7010995892B21F00F5FFC
:1003F0001F4FBE01EDCFC801DF91CF911F910F912B
:10040000FF90EF90DF90CF900895EF92FF920F93BF
:100410001F93CF93DF93EC01623019F48F858860CE
:100420008F876B8B1C8A80E48D8B80E18E8B80E5BF
:100430008F8B61E08C810E94B3008D818F3F19F01A
:1004400061E00E94B30061E08E810E94B3007E01F2
:1004500087E0E80EF11C10E000E08F8584FD0EC0FF
:1004600084E090E0081719075CF461E0F7018191DE
:100470007F010E94B3000F5F1F4FEFCF88E0F1CFE5
:100480008BE39DE00197F1F760E08C810E94E4002E
:1004900060E08E810E94E4008D818F3F19F060E062
:1004A0000E94E4006F8564FD3BC063E0CE010E94C2
:1004B00046010BE416E4C8010197F1F763E0CE01B1
:1004C0000E944601C8010197F1F763E0CE010E9446
:1004D000460183E592E00197F1F762E0CE010E94C8
:1004E00046016F856062CE010E94C90184E0888B5D
:1004F0006CE0CE010E94C90161E0CE010E94C901F9
:100500008BE39FE10197F1F782E0898B66E0CE01F2
:10051000DF91CF911F910F91FF90EF900C94C90143
:100520006062CE010E94C9018BE496E40197F1F765
:100530006F856062CE010E94C90183E592E0019758
:10054000F1F76F856062CE010E94C901CACFFB013D
:10055000EF2B51F0DB010D900020E9F71197AD0171
:10056000461B570B0C94DC0108956F927F928F927B
:100570009F92AF92BF92CF92DF92EF92FF920F9332
:100580001F93CF93DF93CDB7DEB7A1970FB6F89443
:10059000DEBF0FBECDBF3C01142F052F962E872E38
:1005A00019A2223008F42AE05E0181E2A80EB11CF3
:1005B000C22ED12CF12CE12C612F702F892D982D7A
:1005C000A70196010E94CB07812F902FA92DB82D4E
:1005D000122F032F942E852E6A3014F5605DF501DD
:1005E00062935F018C159D05AE05BF0528F7BF011D
:1005F000C3010E94A702A1960FB6F894DEBF0FBEFA
:10060000CDBFDF91CF911F910F91FF90EF90DF90C1
:10061000CF90BF90AF909F908F907F906F900895F4
:10062000695CDDCFCF93DF93CDB7DEB7C057D1097B
:100630000FB6F894DEBF0FBECDBF1C821B8285E0D3
:1006400091E09A83898387E08D838FEF8E8388E0A2
:100650008F838EE088878FE0898780E18A8781E1B8
:100660008B871C861D861E861F86188A61E0CE0138
:1006700001960E94050262E0CE0101960E940502E9
:1006800061E084E00E94B30061E089E00E94B30071
:1006900061E08AE00E94B30061E08DE00E94B30057
:1006A00061E08BE00E94B30060E08CE00E94B30048
:1006B00061E084E00E94E40060E089E00E94E400E0
:1006C00061E08AE00E94E4001CBC8CB580648CBDB3
:1006D0008CB580618CBD8CB588608CBD8CB581601B
:1006E0008CBD40E060E0CE0101960E94CC016DE03F
:1006F00071E0CE0101960E94A70241E060E0CE01C8
:1007000001960E94CC0162E171E0CE0101960E9447
:10071000A70280910001893009F04EC1E8EBF0E0BA
:10072000149117FF74C18BE691E00E94ED073AE641
:10073000C32E31E0D32ECE010196712C612C8C0199
:1007400060E08AE00E94E40021E02EBD0DB407FEC7
:10075000FDCF8EB580E28EBD0DB407FEFDCFEEB4A9
:10076000F12CFE2CEE24EE249FE0F9221EBC0DB4E9
:1007700007FEFDCF8EB5E82A61E08AE00E94E40022
:100780000E9480004B015C019AE0292E312C412C03
:10079000512C0E948000A5966CAF7DAF8EAF9FAFAD
:1007A000A597DC01CB0188199909AA09BB09883EE4
:1007B0009340A105B10568F3A1E02A1A3108410868
:1007C0005108B8EE8B0EB3E09B1EA11CB11C211486
:1007D000310441045104E9F6A0906A018A2C912C5D
:1007E000F4E0AF9E50011124C501865B9E4F5C0171
:1007F000C701B0E0A0E06D968CAF9DAFAEAFBFAFCC
:100800006D97B701CD010E94CF08D5016D937D93FF
:100810008D939C931397BFEF8B1A9B0AE7E08E2270
:10082000992480926A018AE4A82E81E0B82E672D6F
:1008300070E080E0962DD5012D913D914D915D9117
:100840005D016D8F7E8F8F8F98A36D8D7E8D8F8DC7
:1008500098A10E942F08CA14DB0469F720E030E059
:1008600040E05EE369A37AA38BA39CA369A17AA16C
:100870008BA19CA10E9486096DA37EA38FA398A73C
:100880006DA17EA18FA198A50E94A008A9966CAF2A
:100890007DAF8EAF9FAFA997A796AEADBFADA7971F
:1008A000CD01B0E0A0E0A1968CAF9DAFAEAFBFAFE1
:1008B000A197BC01CD010E94CF082CEE34E944E998
:1008C0005DE369A77AA78BA79CA769A57AA58BA5E5
:1008D0009CA50E94860920EE35EA4AEC52E46DA7F9
:1008E0007EA78FA798AB6DA57EA58FA598A90E941E
:1008F0002E08462F572FBC01498F5A8F6B8F7C8F44
:100900009A01AC01609146017091470180914801C4
:10091000909149010E949B08882359F140E064E0CE
:10092000C8010E94CC0167E171E0C8010E94A702E2
:1009300040E064E0C8010E94CC01298D3A8D4B8DC6
:100940005C8DCA01B9010E94F309882309F4C4C06F
:100950006EE171E0C8010E94A702898D9A8DAB8D6E
:10096000BC8D8093460190934701A0934801B093BA
:10097000490180914401909145018E159F0509F42C
:10098000DFCE41E064E0C8010E94CC0167E171E084
:10099000C8010E94A70241E064E0C8010E94CC01A6
:1009A000A70170E060E02AE0C8010E94B502F09261
:1009B0004501E0924401C4CE8F3F09F0B4CE89E0F6
:1009C00080930001E8EBF0E014911F3F09F4ABCEF7
:1009D000113009F446C0123009F45EC01111A1CEE5
:1009E00014BC15BC84B5826084BD85B5816085BDAD
:1009F000EDEAF0E0E491F0E0EE0FFF1FE656FF4F66
:100A000085919491EFE8F0E0E491E093370161E0A3
:100A100089E00E94B300112309F48CC1123009F45B
:100A20009DC1113009F07FCEE1E8F0E08081887F40
:100A3000816080838FE39FE1909389008093880099
:100A40008FEF9FEFDC0180933C0190933D01A093D9
:100A50003E01B0933F01EFE6F0E080818260808349
:100A600062CE10928000E1E8F0E010828081886020
:100A70008083808181608083EDEAF0E0E491F0E0A2
:100A8000EE0FFF1FE656FF4F85919491EFE8F0E0DF
:100A9000E491E0933601BBCFA0EBB0E01C92E1EB18
:100AA000F0E010828C9182608C93808181608083E1
:100AB000EDEAF0E0E491F0E0EE0FFF1FE656FF4FA5
:100AC000859194919093350180933401EFE8F0E0A3
:100AD000E491E09333019BCF898D9A8DAB8DBC8DD2
:100AE000BF7765968CAF9DAFAEAFBFAF65972FEF69
:100AF0003FEF4FE75FE7BC01CD010E94F309811191
:100B000011C02FEF3FEF4FE75FE765966CAD7DAD0E
:100B10008EAD9FAD65970E949B0862E271E018164A
:100B20000CF418CF2FEF3FEF4FE75FE4698D7A8D1C
:100B30008B8D9C8D0E94810918161CF466E271E071
:100B400009CF2FEF3FEF4FE75FEC698D7A8D8B8DEB
:100B50009C8D0E949B0887FDF1CF60E090E0272DDF
:100B6000362F492F562D698D7A8D8B8D9C8D0E9445
:100B70009B0887FFDAC041E06DE2C8010E94740162
:100B8000898D9A8DAB8DBC8DB05861968CAF9DAF21
:100B9000AEAFBFAF61972AE037ED43EA5BE3619602
:100BA0006CAD7DAD8EAD9FAD61970E942F081B018E
:100BB0002C0169AB3AAA8BAB5CAA69A97AA98BA96B
:100BC0009CA90E94A0084B015C010E94CF089B01D8
:100BD000AC012DAA3EAA4FAA58AE6DA97EA98FA935
:100BE00098AD0E942E08562E472E382E292E2AE028
:100BF000A401B501C8010E94B50241E06EE2C8013E
:100C00000E94740120E030E040E251E459AE4AAE67
:100C10003BAE2CAE69AD7AAD8BAD9CAD0E94860922
:100C20004B015C016DAF9EAE8FAF2196BFAE219799
:100C300021966CAD7DAD8EAD9FAD21970E94A00831
:100C4000AD966CAF7DAF8EAF9FAFAD97AB96AEADAF
:100C5000BFADAB97CD01B0E0A0E069968CAF9DAF82
:100C6000AEAFBFAF69972AE0AC01BD01C8010E94D9
:100C7000B50269966CAD7DAD8EAD9FAD69970E9452
:100C8000CF089B01AC0122968FAE229723969FAE90
:100C900023972496AFAE24972596BFAE2597259629
:100CA0006CAD7DAD8EAD9FAD25970E942E0820E0E6
:100CB00030E040E251E426966FAF269727967FAF4B
:100CC000279728968FAF289729969FAF299729961F
:100CD0006CAD7DAD8EAD9FAD29970E9486092A9699
:100CE0006FAF2A972B967FAF2B972C968FAF2C97B1
:100CF0002D969FAF2D972D966CAD7DAD8EAD9FAD92
:100D00002D970E94A008E1966CAF7DAF8EAF9FAF8C
:100D1000E197AF96EEADFFADAF97AF0170E060E049
:100D20002AE0C8010E94B50218CE898D9A8DAB8D3C
:100D3000BC8D2BCF85B5887F836085BD8CE787BD53
:100D40008FEF9FEFDC018093400190934101A093CE
:100D50004201B0934301EEE6F0E07FCEE1EBF0E03C
:100D60008081887F8360808389EF8093B3008FEFD9
:100D70009FEFDC018093380190933901A0933A01F1
:100D8000B0933B01E0E7F0E068CE1F921FB61F92E0
:100D900011242F933F938F939F93AF93BF93809191
:100DA0002F0190913001A0913101B0913201309129
:100DB0002E0123E0230F2D3750F50196A11DB11D03
:100DC00020932E0180932F0190933001A093310145
:100DD000B093320180912A0190912B01A0912C01B6
:100DE000B0912D010196A11DB11D80932A01909310
:100DF0002B01A0932C01B0932D01BF91AF919F9136
:100E00008F913F912F911F901FBE1F90189526E83C
:100E1000230F0296A11DB11DD3CF1F920F920FB6C3
:100E20000F9211242F933F934F935F936F937F9370
:100E30008F939F93AF93BF93EF93FF93809138016C
:100E400090913901A0913A01B0913B01892B8A2BF5
:100E50008B2BD1F190913301E0913401F091350168
:100E60008081892780838091380190913901A091F8
:100E70003A01B0913B01181619061A061B069CF49C
:100E80008091380190913901A0913A01B0913B01D4
:100E90000197A109B1098093380190933901A0937A
:100EA0003A01B0933B01FF91EF91BF91AF919F91B8
:100EB0008F917F916F915F914F913F912F910F9003
:100EC0000FBE0F901F90189580910001E8EBF0E0A5
:100ED000E4919FEF90930001E13051F0E23071F026
:100EE000E11102C010926E0060E00E94E400DBCFCE
:100EF00090916F009D7F90936F00F6CF909170005E
:100F00009D7F9093700091E09093B0009091B1001C
:100F1000987F94609093B1001092B300E5CF7894DD
:100F200084B5826084BD84B5816084BD85B58260EE
:100F300085BD85B5816085BDEEE6F0E0808181608C
:100F40008083E1E8F0E0108280818260808380818C
:100F500081608083E0E8F0E0808181608083E1EB64
:100F6000F0E0808184608083E0EBF0E0808181604C
:100F70008083EAE7F0E08081846080838081826002
:100F800080838081816080838081806880831092EB
:100F9000C1000E941203A1E21A2EAA1BBB1BFD0175
:100FA0000DC0AA1FBB1FEE1FFF1FA217B307E40748
:100FB000F50720F0A21BB30BE40BF50B661F771FA0
:100FC000881F991F1A9469F7609570958095909580
:100FD0009B01AC01BD01CF010895DC012D923D9232
:100FE0004D925D926D927D928D929D92AD92BD9249
:100FF000CD92DD92ED92FD920D931D93CD93DD93F5
:10100000FF91EF918DB78D938EB78D938FB78D93A1
:10101000ED93FD93882799270994DC01CB0181305A
:101020009105811D2D903D904D905D906D907D902E
:101030008D909D90AD90BD90CD90DD90ED90FD9008
:101040000D911D91CD91DD91ED91FD910D90F89453
:10105000FEBF0FBEEDBFED91FD9109945058BB2727
:10106000AA270E9446080C9447090E94390938F0C3
:101070000E94400920F039F49F3F19F426F40C94A3
:1010800036090EF4E095E7FB0C943009E92F0E9435
:10109000580958F3BA17620773078407950720F0B9
:1010A00079F4A6F50C947A090EF4E0950B2EBA2F7C
:1010B000A02D0B01B90190010C01CA01A00111245E
:1010C000FF27591B99F0593F50F4503E68F11A160A
:1010D000F040A22F232F342F4427585FF3CF46959B
:1010E00037952795A795F0405395C9F77EF41F16BD
:1010F000BA0B620B730B840BBAF09150A1F0FF0F87
:10110000BB1F661F771F881FC2F70EC0BA0F621F72
:10111000731F841F48F4879577956795B795F79562
:101120009E3F08F0B0CF9395880F08F09927EE0FF7
:101130009795879508950E940C0908F481E0089519
:101140000E94600988F09F5798F0B92F9927B751EE
:10115000B0F0E1F0660F771F881F991F1AF0BA955B
:10116000C9F714C0B13091F00E947A09B1E0089536
:101170000C947A09672F782F8827B85F39F0B93F28
:10118000CCF3869577956795B395D9F73EF490950E
:101190008095709561957F4F8F4F9F4F0895E8948C
:1011A00009C097FB3EF490958095709561957F4FAF
:1011B0008F4F9F4F9923A9F0F92F96E9BB2793955D
:1011C000F695879577956795B795F111F8CFFAF46D
:1011D000BB0F11F460FF1BC06F5F7F4F8F4F9F4F9E
:1011E00016C0882311F096E911C0772321F09EE8FC
:1011F000872F762F05C0662371F096E8862F70E062
:1012000060E02AF09A95660F771F881FDAF7880F3B
:101210009695879597F90895990F0008550FAA0B91
:10122000E0E8FEEF16161706E807F907C0F01216F9
:101230001306E407F50798F0621B730B840B950BFC
:1012400039F40A2661F0232B242B252B21F4089551
:101250000A2609F4A140A6958FEF811D811D0895EE
:1012600097F99F6780E870E060E008959FEF80EC59
:10127000089500240A9416161706180609060895FC
:1012800000240A9412161306140605060895092E62
:101290000394000C11F4882352F0BB0F40F4BF2BD1
:1012A00011F460FF04C06F5F7F4F8F4F9F4F089511
:1012B00057FD9058440F551F59F05F3F71F0479507
:1012C000880F97FB991F61F09F3F79F087950895EC
:1012D000121613061406551FF2CF4695F1DF08C00B
:1012E000161617061806991FF1CF86957105610528
:1012F00008940895E894BB2766277727CB0197F9D0
:1013000008950E940C0908F48FEF08950E9499092E
:101310000C9447090E94390938F00E94400920F0D6
:10132000952311F00C9430090C94360911240C9477
:101330007B090E94580970F3959FC1F3950F50E007
:10134000551F629FF001729FBB27F00DB11D639F77
:10135000AA27F00DB11DAA1F649F6627B00DA11D1D
:10136000661F829F2227B00DA11D621F739FB00DC3
:10137000A11D621F839FA00D611D221F749F332733
:10138000A00D611D231F849F600D211D822F762FCC
:101390006A2F11249F5750409AF0F1F088234AF0A9
:1013A000EE0FFF1FBB1F661F771F881F9150504015
:1013B000A9F79E3F510580F00C9430090C947B09ED
:1013C0005F3FE4F3983ED4F3869577956795B7959C
:1013D000F795E7959F5FC1F7FE2B880F911D9695B6
:1013E000879597F908950E940C09880B990B089529
:0413F000F894FFCF9F
:1013F400FF00000000C301DC017C007F0054203D9D
:10140400200053203D2000202020202020006E6159
:0A1414006E00696E66006F766600D8
:00000001FF
